:10000000023B7C008F828E83E0540100000070F878
:100010002278FFE4F6D8FD023C390203ECE8648064
:10002000F8E933E83360110460F0ED33EC33700924
:10003000E8FCE9FDEAFEEBFF220460DED3EB9FEA79
:100040009EE99DE8C2E78CF0C2F795F0400CE8CC41
:10005000F8E9CDF9EACEFAEBCFFB1203B785D0F081
:100060005804700320D5B3E80470075002B2D502DB
:1000700003F692D5EC0460F7E4CCC0E0C398F860D6
:100080003B94186008400DD0E0FB0203CEE4FBFA7D
:10009000C9FC8028E830E406E4C9FBE4CAFCE83087
:1000A000E305E4C9CACBFCE854076010F8C3E913C0
:1000B000F9EA13FAEB13FBEC13FCD8F130F52FC37C
:1000C000E49CFCEF9BFFEE9AFEED99FDD0E0FBEF88
:1000D0004E4D4C701222DB030203F3EC2CFCEF3389
:1000E000FFEE33FEED33FDED30E7EB0203CEEF2BF9
:1000F000FFEE3AFEED39FDD0E0FB50130BBB0003E1
:100100000203F6ED13FDEE13FEEF13FFEC13FC02FA
:1001100003CEEC4D6011E8497017ED33EC33046009
:100120000DE4FCFFFEFD22E933E8330470F802031E
:10013000EC1203B758046009E4CC2481500628501F
:10014000090203F62840030203F3C0E0EB4A7044BF
:10015000B98006D0E0FB0203E2EF4E701CBD8008C0
:10016000EBFFEAFEE9FD80EBE98DF0A4FEE5F0028D
:1001700001FBE9CDF9EAFEEBFFEF89F0A4FCE5F025
:10018000CE89F0A42EFFE435F0CD89F0A42DFEE455
:1001900035F08067EF4E7005BD80D780C3EF8BF0E0
:1001A000A4ACF0EE8BF0A42CFCE435F0F8EF8AF070
:1001B000A42CE5F038FCE433CB8DF0A42CFCE5F066
:1001C0003BF8EE8AF0A42CFCE5F038F8E433CF8954
:1001D000F0A42CFCE5F038CF3400CE89F0A42FFF3A
:1001E000E5F03EFEE433C98DF0A42EFEE5F039CDF6
:1001F0008AF0A42FFFE5F03EFEE43DFD33D0E0FBA6
:1002000050070BBB000F0203F6EC2CFCEF33FFEEA4
:1002100033FEED33FD0203CE0203F6EC5D04600510
:10022000E8590470030203EC1203B7580460F6ECBB
:100230004860F2EC7004FDFEFF22C860DB2481C838
:100240005009C398600250060203F39850CAF58221
:10025000E9294B4A7005AB820203E275F0007C1A73
:100260007880C3EF9BEE9AED99400DC3EF9BFFEEB4
:100270009AFEED99FDE842F0DC23ACF0D0E0FFD02F
:10028000E0FED0E0FDAB8220E7101BEB60BAEC2C67
:10029000FCEF33FFEE33FEED33FD0203CEE803F84F
:1002A00030E705C0F075F000EF2FFFEE33FEED33C1
:1002B000FD40B830E7C280AA74F8CC6480CCC86432
:1002C00080C8F58204604FC3EB9FF5F0EA9E42F0D0
:1002D000E99D42F0E89C45F0603C501DE5825FFFDF
:1002E000E582D313CB5BCBF42B5582FB50280ABAA3
:1002F000002409B9002008801DE5825BFBE582D35C
:1003000013CF5FCFF4C3132F5582FF50090EBE00E9
:10031000050DBD00010CC3EB9FF5F0EA9E42F0E92C
:100320009D42F0E89C45F06007CC4820E701B3EC23
:1003300022ED33EC33600A047003BD8004ECB2E7B5
:10034000FC2275F020800E75F010800575F0087D98
:10035000007E007F003392D530D5031208C9EC33FC
:100360004010EF33FFEE33FEED33FDEC33FCD5F000
:10037000ED22E5F0247EA2D513CC92E7CDCEFF226C
:10038000EDD2E7CD33EC3392D524814006E4FFFE75
:10039000FDFC22FCE4CFCECDCC24E0501174FF80D4
:1003A000EDC3CC13CCCD13CDCE13CECF13CF047071
:1003B000F030D5DE0208C9E9D2E7C933E833F89254
:1003C000D5EDD2E7CD33EC33FC5002B2D522EC3080
:1003D000E7100FBF000C0EBE00080DBD00040BEBB4
:1003E0006014A2D5EB13FCED92E7FD2274FFFCFD37
:1003F000FEFF22E480F8A2D574FF13FC7D80E48028
:10040000EFF920E73624F950037907E4F42402FBDE
:10041000E582158270021583DBF6E024FB501BE9B0
:100420006014E4F0E582158270021583E004F0B4F4
:100430000A08E4F0D9EE7401F00A22C2D522ED33A5
:10044000EC3392D5FA602AB4FF33EDC2E77BFF604C
:10045000067A047963E4227A04796C20D5047A045C
:100460007967224E614E002B494E46002D494E467B
:1004700000E47A08F0A3DAFC7B00740722C083C092
:1004800082ECC0E0EDC0E0EEC0E0EFC0E0EA75F065
:1004900010A4CAABF075F04DA42BFBE435F0FCEAD8
:1004A0002410FAEB34C5FBEC34D9FCEDC2E7FF7540
:1004B000F056A4F42411C5F0F434C58FF0A42AE555
:1004C000F03BE43CF020E7141205C0D0E0FFD0E0A0
:1004D000FED0E0FDD0E0FC12021B8014F4041205F3
:1004E000C0D0E0FFD0E0FED0E0FDD0E0FC12011271
:1004F000D082D083E0FAEDD2E7CD33EC332482FB17
:10050000E4C3CF33CFCE33CECD33CD33DBF37B0754
:1005100075F00A846004F0A31B0AE5F0F0A38FF0E5
:10052000740AA4FFACF08EF0740AA42CFEACF05058
:10053000010C8DF0740AA42CFDE435F0F0A3DBDE91
:10054000740722C0E0EFFBEEFAEDF9ECF8120112AD
:10055000D0E0F5F0EFFBEEFAEDF9ECF812096BA341
:10056000A3A3A3E8C0E0E9C0E0EAC0E0EBC0E0C0BC
:10057000F0120112120987A3A3A3A3120021D0F045
:10058000D0E0FBD0E0FAD0E0F9D0E0F8D5F0D4220A
:100590003F8000004120000042C80000447A000073
:1005A000461C400047C35000497424004B189680F5
:1005B0004CBEBC205A0E1BCA6753C21C749DC5AEEC
:1005C000FB60065407601C23231205EEEB543860D1
:1005D000091205DA1205E9120112ECF8EDF9EEFA4A
:1005E000EFCB22EB1205E980F1543803241C90056F
:1005F00090FE93FC0EEE93FD0EEE930ECE93FF2233
:10060000BB010689828A83E0225002E722BBFE02F8
:10061000E32289828A83E49322BB010CE58229F5D7
:1006200082E5833AF583E0225006E92582F8E62246
:10063000BBFE06E92582F8E222E58229F582E58300
:100640003AF583E49322BB010989828A83F8E02882
:10065000F022500327F722BBFE05F8E328F3228A95
:10066000838982F8E4932822BB010689828A83F079
:10067000225002F722BBFE01F322EF8DF0A4A8F076
:10068000CF8CF0A428CE8DF0A42EFE22BC000BBE91
:100690000029EF8DF084FFADF022E4CCF875F0086E
:1006A000EF2FFFEE33FEEC33FCEE9DEC984005FCA3
:1006B000EE9DFE0FD5F0E9E4CEFD22EDF8F5F0EE6B
:1006C0008420D21CFEADF075F008EF2FFFED33FD56
:1006D0004007985006D5F0F222C398FD0FD5F0EAF6
:1006E00022C2D5EC30E709B2D5E4C39DFDE49CFC01
:1006F000EE30E715B2D5E4C39FFFE49EFE12068CF0
:10070000C3E49DFDE49CFC800312068C30D507C336
:10071000E49FFFE49EFE22C5F0F8A3E028F0C5F0B8
:10072000F8E582158270021583E038F022BB010AD9
:1007300089828A83E0F5F0A3E022500687F009E77A
:100740001922BBFE07E3F5F009E3192289828A83A7
:10075000E493F5F074019322BB010A89828A83F045
:10076000E5F0A3F0225006F709A7F01922BBFE0618
:10077000F3E5F009F31922EF2BFFEE3AFEED39FD18
:10078000EC38FC22C3EF9BFFEE9AFEED99FDEC984E
:10079000FC22E88FF0A4CC8BF0A42CFCE98EF0A412
:1007A0002CFC8AF0EDA42CFCEA8EF0A4CDA8F08BF2
:1007B000F0A42DCC3825F0FDE98FF0A42CCD35F038
:1007C000FCEB8EF0A4FEA9F0EB8FF0A4CFC5F02EC9
:1007D000CD39FEE43CFCEAA42DCE35F0FDE43CFC32
:1007E0002275F008758200EF2FFFEE33FECD33CD7A
:1007F000CC33CCC58233C5829BED9AEC99E58298C7
:10080000400CF582EE9BFEED9AFDEC99FC0FD5F0C5
:10081000D6E4CEFBE4CDFAE4CCF9A88222B800C13C
:10082000B90059BA002DEC8BF084CFCECDFCE5F0A9
:10083000CBF97818EF2FFFEE33FEED33FDEC33FCF0
:10084000EB33FB10D703994004EB99FB0FD8E5E499
:10085000F9FA227818EF2FFFEE33FEED33FDEC337B
:10086000FCC933C910D7059BE99A4007EC9BFCE90A
:100870009AF90FD8E0E4C9FAE4CCFB2275F010EF46
:100880002FFFEE33FEED33FDCC33CCC833C810D789
:10089000079BEC9AE899400AED9BFDEC9AFCE899DD
:1008A000F80FD5F0DAE4CDFBE4CCFAE4C8F922EF96
:1008B0005BFFEE5AFEED59FDEC58FC22EF4BFFEECC
:1008C0004AFEED49FDEC48FC22C3E49FFFE49EFE96
:1008D000E49DFDE49CFC22EB9FF5F0EA9E42F0E9EA
:1008E0009D42F0EC6480C864809845F022EB9FF54F
:1008F000F0EA9E42F0E99D42F0E89C45F022E86073
:1009000010ECA2E713FCED13FDEE13FEEF13FFD87E
:10091000F022E8600FEFC333FFEE33FEED33FDEC62
:1009200033FCD8F122BB010789828A8302095F5018
:1009300005E9F8020E50BBFE05E9F8020E5C89825B
:100940008A8302096BBB010789828A830209B75037
:1009500005E9F8020E82BBFE05E9F8020E8E22E0E0
:10096000FCA3E0FDA3E0FEA3E0FF22E493FC7401FE
:1009700093FD740293FE740393FF22E0F8A3E0F961
:10098000A3E0FAA3E0FB22E493F8740193F9740264
:1009900093FA740393FB22BB010789828A830209BD
:1009A0007B5005E9F8020E68BBFE05E9F8020E75FA
:1009B00089828A83020987ECF0A3EDF0A3EEF0A30D
:1009C000EFF022A42582F582E5F03583F58322E05D
:1009D000FBA3E0FAA3E0F922F8E0FBA3A3E0F925EA
:1009E000F0F0E582158270021583E0FA38F022EB10
:1009F000F0A3EAF0A3E9F022BB010789828A83020F
:100A000009CF5005E9F8020E9ABBFE05E9F8020E7F
:100A1000AC89828A83020EBEBB011A89828A83D086
:100A2000F0D0E0F8D0E0F9D0E0FAD0E0FBE8C0E0A8
:100A3000C0F00209EF5016E9F8D083D082D0E0F977
:100A4000D0E0FAD0E0FBC082C083020EA3BBFE164A
:100A5000E9F8D083D082D0E0F9D0E0FAD0E0FBC052
:100A600082C083020EB522D083D082F8E493701244
:100A7000740193700DA3A393F8740193F582888396
:100A8000E4737402936860EFA3A3A380DF8A838971
:100A900082E473E50E2582F582E50D3583F583B595
:100AA0000D0485820E2210AF0685820EF50D22857B
:100AB000820EF50DD2AF22EC8EF0A4CCC5F0CCCDD9
:100AC000F8EFA4CEC5F02DFDE43CFCE8A42EC8C58B
:100AD000F03DFDE43CFCEFA4FFE5F028FEE43DFD25
:100AE000E43CFC22EF4E6012EF60010EEDBB010B07
:100AF00089828A83F0A3DFFCDEFA2289F05007F7AF
:100B000009DFFCA9F022BBFEFCF309DFFCA9F022FF
:100B1000E709F608DFFA8046E709F208DFFA803EC7
:100B200088828C83E709F0A3DFFA8032E309F608B4
:100B3000DFFA806EE309F208DFFA806688828C8330
:100B4000E309F0A3DFFA805A89828A83E0A3F608DA
:100B5000DFFA804E89828A83E0A3F208DFFA8042BE
:100B600080D280FA80C680D4805580F2802980109F
:100B700080A680EA809A80A880DA80E280CA8029F4
:100B800088848C8589828A83E493A30586F0A305F3
:100B900086DFF5DEF3800B89828A83E493A3F6086F
:100BA000DFF9ECFAA9F0EDFB2288848C8589828A32
:100BB00083E0A30586F0A30586DFF6DEF480E389F3
:100BC000828A83E493A3F208DFF980D688F0EF608D
:100BD000010E4E60CD88F0ED2402B4040050C3F540
:100BE00082EB2402B4040050B92323458223900BE6
:100BF0006073E3F5F009E208B5F06D606B80F3E334
:100C0000F5F009E608B5F060605E80F387F009E66C
:100C100008B5F054605280F487F009E208B5F04856
:100C2000604680F488828C8387F009E0A3B5F038B1
:100C3000603680F488828C8387F009E493A3B5F052
:100C400027602580F388828C83E3F5F009E0A3B563
:100C5000F016601480F388828C83E3F5F009E49346
:100C6000A3B5F004600280F2020D09808580E78060
:100C70008E80D28032801580628074809B80B580A7
:100C80008B80A1804580668030020D1588848C851C
:100C900089828A83E493F5F0A30586E493A305860D
:100CA000B5F066606480ED89828A83E493F5F0A3F1
:100CB000E208B5F054605280F289828A83E0F5F050
:100CC000A3E608B5F043604180F389828A83E0F5AA
:100CD000F0A3E208B5F032603080F389828A83E4C1
:100CE00093F5F0A3E608B5F020601E80F2803F88FF
:100CF000848C8589828A83E493F5F0A30586E0A33A
:100D00000586B5F004600280EE7FFFB5F0020F2289
:100D100040027F012288848C8589828A83E0F5F0F5
:100D2000A30586E0A30586B5F0DF60DD80EF88844B
:100D30008C8589828A83E0F5F0A30586E493A30578
:100D400086B5F0C560C380EE88F0ED2402B40400DF
:100D500050B7F582EB2402B4040050AD2323458242
:100D600023900C6B73E709F60870FA8046E709F2E6
:100D70000870FA803E88828C83E709F0A370FA80BD
:100D800074E309F60870FA806CE309F20870FA80DF
:100D90006488828C83E309F0A370FA805889828A80
:100DA00083E0A3F60870FA804C89828A83E0A3F27C
:100DB0000870FA804080D280FA80C680D48051804A
:100DC000F28027801080A680EA809A80A880DA804E
:100DD000E280CA802788848C8589828A83E493A3F1
:100DE0000586F0A3058670F5800B89828A83E493DB
:100DF000A3F60870F9ECFAA9F0EDFB2288848C8543
:100E000089828A83E0A30586F0A3058670F680E5D3
:100E100089828A83E493A3F20870F980D888F0ED80
:100E20002402B4040050CEF582EB2402B404005036
:100E3000C42323458223900DB573A3F8E0C5F025A4
:100E4000F0F0E582158270021583E0C838F0E822E0
:100E5000E6FC08E6FD08E6FE08E6FF22E2FC08E202
:100E6000FD08E2FE08E2FF22E6FB08E6F908E6FAE2
:100E700008E6CBF822E2FB08E2F908E2FA08E2CB46
:100E8000F822ECF608EDF608EEF608EFF622ECF2A2
:100E900008EDF208EEF208EFF222E6FB08E6FA08A7
:100EA000E6F922EBF608EAF608E9F622E2FB08E2A8
:100EB000FA08E2F922EBF208EAF208E9F222E493F6
:100EC000FB740193FA740293F92290018A1209EFDC
:100ED00090018A1209CFE92410F9EA3400FA1209C4
:100EE00025EC1203429001901209B790018A120971
:100EF000CFE9241EF9EA3400FA12072DFFAEF09074
:100F0000018A1209CFE92420F9EA3400FA12072DE8
:100F1000FDACF0C3ED9FFFEC9EFE90018A1209CF5D
:100F200012072DFDACF012067AAC06AD07EC1203E9
:100F300047C004C005C006C00790018A1209CFE966
:100F4000241EF9EA3400FA12072DFDACF090018A54
:100F50001209CF12072DFFAEF012067AAC06AD07CC
:100F6000EC1203477B007A007900784012021BA83C
:100F700004A905AA06AB07D007D006D005D00412F5
:100F80000021120380900194EEF0A3EFF090018A0B
:100F90001209CFE9241EF9EA3400FA12072DFFAE38
:100FA000F0EE3395E0FDFC90018A1209CFE9241A96
:100FB000F9EA3400FA120997C31208ED400302104F
:100FC0008F90018A1209CFE9241AF9EA3400FA1243
:100FD0000925EF2401FFEE3400FEED3400FDEC3472
:100FE00000FCE412034290018A1209CFE92404F9BB
:100FF000EA3400FA12099712011212038090018A52
:101000001209CFE92414F9EA3400FA1209459001D3
:101010008A1209CFE9241AF9EA3400FA120925EFF5
:101020002401FFEE3400FEED3400FDEC3400FCC082
:1010300004C005C006C00790018A1209CFE9241A2E
:10104000F9EA3400FA120925EF2401FBEE3400FA24
:10105000ED3400F9EC3400F8D007D006D005D00408
:10106000120792E412034290018A1209CFE9240484
:10107000F9EA3400FA1209971201127B007A00791A
:1010800000784012021B9001901209B702140D90D3
:10109000018A1209CFE92420F9EA3400FA12072D57
:1010A000FFAEF0EE3395E0FDFC90018A1209CFE926
:1010B000241AF9EA3400FA120997C31208ED400322
:1010C0000211CA90018A1209CF12072DFFAEF0EE6D
:1010D0003395E0FDFC90018A1209CFE92414F9EA66
:1010E0003400FA12094590018A1209CFE9241AF94D
:1010F000EA3400FA120925EF2401FFEE3400FEED78
:101100003400FDEC3400FCC004C005C006C00790EC
:10111000018A1209CFE9241EF9EA3400FA12072DD8
:10112000FFAEF0AB07AA06EA3395E0F9F8D007D096
:1011300006D005D004120784C004C005C006C0074D
:1011400090018A1209CFE92414F9EA3400FA12094D
:1011500025AB07AA06A905A804A804A905AA06ABF9
:1011600007D007D006D005D004120792E41203423C
:10117000C004C005C006C00790018A1209CFE92447
:101180001EF9EA3400FA12072DFDACF090018A1224
:1011900009CF12072DFFAEF012067AAC06AD07ECB0
:1011A0001203477B007A007900784012021BA804E2
:1011B000A905AA06AB07D007D006D005D0041200B7
:1011C000219001901209B702140D90018A1209CFE3
:1011D000E92422F9EA3400FA12072DFFAEF0EE33CB
:1011E00095E0FDFC90018A1209CFE9241AF9EA344E
:1011F00000FA120997C31208ED400302140D900182
:101200008A1209CFE9241AF9EA3400FA120925EF03
:101210002401FFEE3400FEED3400FDEC3400FCC090
:1012200004C005C006C00790018A1209CFE9242036
:10123000F9EA3400FA12072DFFAEF0AB07AA06EA6E
:101240003395E0F9F8D007D006D005D00412078412
:10125000E412034290018A1209CFE92408F9EA3422
:1012600000FA120997120112124B3DC004C005C0CA
:1012700006C00790018A1209CF12072DFDACF0ECD1
:10128000120347D003D002D001D00012001D120378
:101290008090018A1209CFE92414F9EA3400FA1285
:1012A000094590018A1209CFE9241AF9EA3400FAB3
:1012B000120925EF2401FFEE3400FEED3400FDECB1
:1012C0003400FCC004C005C006C00790018A1209A2
:1012D000CFE92422F9EA3400FA12072DFFAEF0EE2E
:1012E0003395E0FDFCD003D002D001D0001207847A
:1012F000C004C005C006C00790018A1209CFE924C6
:101300001AF9EA3400FA120925EF2401FFEE34003D
:10131000FEED3400FDEC3400FCC004C005C006C086
:101320000790018A1209CFE92422F9EA3400FA125F
:10133000072DFFAEF0EE3395E0FDFCD003D002D0D8
:1013400001D000120784A804A905AA06AB07D0079C
:10135000D006D005D004120792E412034290018A0D
:101360001209CFE92408F9EA3400FA1209971201A8
:10137000127B007A007900784012021BC004C0057D
:10138000C006C00790018A1209CFE92420F9EA3487
:1013900000FA12072DFFAEF090018A1209CFE9245E
:1013A00022F9EA3400FA12072DFDACF0C3ED9FFFDD
:1013B000EC9EFE90018A1209CF12072DFDACF012AF
:1013C000067AAC06AD07EC1203477B007A00790081
:1013D000784012021BC004C005C006C007900194EB
:1013E000E0FCA3E0FDE4120347A804A905AA06ABAC
:1013F00007D007D006D005D004120021D003D002B8
:10140000D001D00012001D9001901209B790018AFE
:101410001209CFE92422F9EA3400FA12072DFFAEAF
:10142000F0EE3395E0FDFC90018A1209CFE9241A11
:10143000F9EA3400FA120997C31208ED50030215B5
:101440000790018A1209CFE9240CF9EA3400FA1254
:101450000925127270EE3395E0FDFC90018A1209A5
:10146000CFE92410F9EA3400FA120997C31208D719
:10147000400302153490018A1209CFE9241AF9EACF
:101480003400FA1209257B017A00790078001207EE
:101490007790018A1209CFE9241AF9EA3400FA1286
:1014A000094590018A1209CFE92414F9EA3400FAB7
:1014B0001209257B007A0079007800C31208D760F2
:1014C000197F007E007D007C0090018A1209CFE91F
:1014D0002414F9EA3400FA12094590018A1209CF5E
:1014E000E92410F9EA3400FA120925EF2401FFEE8D
:1014F0003400FEED3400FDEC3400FCEC12034290AD
:1015000001901209B7802D90018A1209CFE9241A9F
:10151000F9EA3400FA1209257B017A007900780093
:1015200012077790018A1209CFE9241AF9EA3400E8
:10153000FA12094590019012095F12038090018A06
:101540001209CFE92410F9EA3400FA120945900192
:101550008A1209CFE9240CF9EA3400FA1209257B32
:10156000007A0079007800D31208D75008900190D3
:1015700012095F800990019012095F120331120372
:101580008090018D1209CF1209457F00229001C180
:101590001209EF9001C11209CFE924FAF9EA3400E7
:1015A000FA120997C000C001C002C0039001C41222
:1015B00009CF120925D003D002D001D00012001D9E
:1015C0009001C81209B79001C11209CFE924FEF9B0
:1015D000EA3400FA120997C000C001C002C00390AB
:1015E00001C41209CFE92404F9EA3400FA120925EA
:1015F000D003D002D001D00012001D9001CC1209FE
:10160000B77B017A0179C8C003C002C0019001C153
:101610001209CFE92406F9EA3400FA9001D512093B
:10162000EFD001D002D00312308E9001C11209CF49
:10163000E92406F9EA3400FA1209257B007A0079D8
:10164000007800C31208D770229001C11209CFE9B7
:1016500024F6F9EA3400FA1209259001C11209CFE3
:10166000E9240AF9EA3400FA1209457F9F7E8B7D4E
:101670002A7C46124B3D120380E4FCFDC004C005E9
:10168000C006C0079001C11209CFE924F6F9EA3477
:1016900000FA120925D003D002D001D0001268A8A8
:1016A000AC00AD01AE02AF039001D0EEF0A3EFF0BD
:1016B0009001D0E0FEA3E0FF127270AC06AD07EC23
:1016C0001203477B9F7A8B79AA78451202B850594A
:1016D0009001D0E0FEA3E0FFD3EF9400EE6480948D
:1016E0008040249001D0E0FCA3E0FDEC1203477B96
:1016F0009F7A8B792A78C61200211203809001D03C
:10170000EEF0A3EFF080229001D0E0FCA3E0FDEC2E
:101710001203477B9F7A8B792A78461200211203A5
:10172000809001D0EEF0A3EFF09001C7E0FFEF60F2
:10173000030218E49001C11209CFE9240AF9EA343E
:1017400000FA1209259001D0E0FCA3E0FDC3EF9D53
:10175000FFEE9CFE127270AC06AD07EC1203477BE5
:101760009F7A8B79AA78451202B840030217F89045
:1017700001C11209CFE9240AF9EA3400FA12092555
:101780007B007A0079007800C31208D750369001A8
:10179000C11209CFE9240AF9EA3400FA120925EC4A
:1017A0001203427B9F7A8B792A78C612002112039A
:1017B000809001C11209CFE9240AF9EA3400FA1233
:1017C000094580349001C11209CFE9240AF9EA34AD
:1017D00000FA120925EC1203427B9F7A8B792A7852
:1017E000461200211203809001C11209CFE9240A98
:1017F000F9EA3400FA1209459001C11209CFE9242F
:101800000AF9EA3400FA1209259001D0E0FCA3E0BD
:10181000FDC3EF9DFFEE9CFE127270AC06AD07ECAF
:101820001203477B9F7A8B792A78451202B84003CE
:10183000021A639001C11209CFE9240AF9EA3400BF
:10184000FA1209257B007A0079007800C31208D7C4
:1018500050369001C11209CFE9240AF9EA3400FA9E
:10186000120925EC1203427B9F7A8B79AA78C51264
:1018700000211203809001C11209CFE9240AF9EA7C
:101880003400FA12094580349001C11209CFE924CD
:101890000AF9EA3400FA120925EC1203427B9F7A16
:1018A0008B79AA78451200211203809001C1120998
:1018B000CFE9240AF9EA3400FA1209459001C1126D
:1018C00009CFE92406F9EA3400FA1209251208C9F9
:1018D0009001C11209CFE92406F9EA3400FA12098D
:1018E00045021A639001C7E0FFEF6402600302192A
:1018F0009F9001C11209CFE9240AF9EA3400FA12D3
:1019000009257B007A0079007800C31208D7503689
:101910009001C11209CFE9240AF9EA3400FA120948
:1019200025EC1203427B9F7A8B79AA78C51200219D
:101930001203809001C11209CFE9240AF9EA3400A8
:10194000FA12094580349001C11209CFE9240AF93D
:10195000EA3400FA120925EC1203427B9F7A8B7954
:10196000AA78451200211203809001C11209CFE923
:10197000240AF9EA3400FA1209459001C11209CF8C
:10198000E92406F9EA3400FA1209251208C990017F
:10199000C11209CFE92406F9EA3400FA1209459088
:1019A00001C11209CFE9240AF9EA3400FA12092523
:1019B0009001D0E0FCA3E0FDC3EF9DFFEE9CFE1282
:1019C0007270AC06AD07EC1203477B9F7A8B79AA45
:1019D00078451202B84003021A639001C11209CF80
:1019E000E9240AF9EA3400FA1209257B007A007921
:1019F000007800C31208D750369001C11209CFE910
:101A0000240AF9EA3400FA120925EC1203427B9FFA
:101A10007A8B792A78C61200211203809001C112B4
:101A200009CFE9240AF9EA3400FA12094580349012
:101A300001C11209CFE9240AF9EA3400FA12092592
:101A4000EC1203427B9F7A8B792A7846120021128E
:101A500003809001C11209CFE9240AF9EA3400FA9F
:101A60001209459001C11209CFE92406F9EA3400B0
:101A7000FAC003C002C0011209259001C11209CFAA
:101A8000E92412F9EA3400FA120997120777D00113
:101A9000D002D0031209459001C41209CFC003C07F
:101AA00002C0019001C11209CFE924EEF9EA340025
:101AB000FAA801AC02AD03D001D002D0037E007FB2
:101AC00008120BCC9001C11209CFE9240AF9EA34BB
:101AD00000FAC003C002C001120925C004C005C03D
:101AE00006C0079001C11209CFE924F6F9EA3400D3
:101AF000FA120925C004C005C006C0079001D0E055
:101B0000FEA3E0FFAB07AA06EA3395E0F9F8D00799
:101B1000D006D005D004120784A804A905AA06ABF4
:101B200007D007D006D005D004120777D001D00225
:101B3000D0031209459001C11209CF74041206683E
:101B400022E50824EEF582E43401F583E00508225D
:101B50009001EB3007039001EEE475F0011209D813
:101B60000206002000E97F2ED2008018EF540F24D7
:101B700090D43440D4FF30040BEF24BFB41A00508B
:101B8000032461FFE50960021509050CE50C7002EC
:101B9000050B30070E9001EBE475F0011209D8EF48
:101BA000020668026CC67403D2078003E4C207F51C
:101BB000089001EB1209EFE4F509F50BF50CE509C6
:101BC00060077F20121B8480F5750AFFC201C200E6
:101BD000C202C203C205C206C208121B50FF700D2A
:101BE0003007057F00121B95AF0CAE0B22B4255FAA
:101BF000C2D5C204121B50FF24D0B40A00501A757B
:101C0000F00A780930D50508B6FF0106C6A426F605
:101C100020D5047002D20380D924CFB41A00EF502B
:101C200004C2E5D204021E87D20180C6D20080C061
:101C3000D20280BCD2D580BAD20580B47F20121BDC
:101C4000842002077401B5090040F1121B41FF1204
:101C50001B84021BBED208D2068095121B41FB12C8
:101C60001B41FA121B41F94A4B700679857A1F7B9A
:101C7000FF20022EE509602A7E008E827583001205
:101C8000061960060EEE650A70F0C2D5EBC0E0EAF8
:101C9000C0E0E9C0E0EE121EE8D0E0F9D0E0FAD0F2
:101CA000E0FB120600FF60AAEBC0E0EAC0E0E9C07A
:101CB000E0121B84D0E02401F9D0E03400FAD0E037
:101CC000FBE50A0460DCD50AD98087D20280A21223
:101CD0001ECA60F7E50A700104120401A90A600D2A
:101CE000E50A600914F50A121F72EF60F3EA30E7A3
:101CF00002F404C3995079EAF4250A0430E701E4B8
:101D000004F50A800D121ECA60C1EA050A250A12EE
:101D10000401EA90021AF030E701E4250A04D50A2A
:101D20000420050114121EE8E4C0E0121F729002A4
:101D30001AE0601320E70714F0121B6C802204F0F5
:101D4000D0E014C0E07F00121B6CE50A6007121B94
:101D500063150A800B300503121B63D0E0021BBE23
:101D6000D0E00480C4121ECA609EE50A0412040179
:101D700090021AEAF0E50A20050260010424041228
:101D80001EE874FF04C0E0121F72121B6CE50A20EB
:101D900005026003121B63D0E0B50AE87F45121B01
:101DA0007690021AE07F2B30E7047F2DF404C0E028
:101DB000121B84D0E075F00A84C0F0121B6DD0E0D5
:101DC000121B6D021BBE791080027908C206C20880
:101DD0008008D2D5790A8004790AC2D5E50A047050
:101DE00002F50AE4FAFDFEFF121B41FC7B0820010C
:101DF00013121B41FD7B1030000A121B41FE121B07
:101E000041FF7B20EC3382D592D55013C3E43000E0
:101E1000069FFFE49EFEE42001039DFDE49CFCE49C
:101E2000CBF8C201EC700CCFCECDCCE824F8F87022
:101E3000F38017C3EF33FFEE33FEED33FDEC33FCDD
:101E4000EB33FB994002FB0FD8E9EB300105F8D0EA
:101E5000E0C448B201C0E00AEC4D4E4F78207B0050
:101E600070C2EAB50A0040BCC0E0121EEAD0F0D051
:101E7000E0200104C4C0E0C4B201C0F0121B6DD068
:101E8000F0D5F0EB021BBE120A671C5B531DC6584F
:101E90001C2C4C1C28421DCA4F1DD2441DD2491C6B
:101EA00041431DD8551D05461D65451CCF471FA53F
:101EB000501C302D1C342E1C572B1C38231C552035
:101EC0001F8E2A1BF04800001C4FE50AB4FF037563
:101ED0000A06121B41FC121B41FD121B41FE121B84
:101EE00041FF90021302043E790AA2D52003143068
:101EF0000509B910020404B9080104A2D52006029C
:101F00005001042002689202B509005034C0E07FFD
:101F1000203003197F30A20272067205500F121F83
:101F200041C202C206C205C2087F30800F300503DD
:101F3000E9C0E0121B84300503D0E0F9D0E0B50918
:101F4000CC3005177F30B9100C121B847F58300439
:101F5000077F788003B90803121B843002057F2DA8
:101F6000021B847F202008F87F2B2006F322920298
:101F700080CF7F00B40700500B2413F582E43402B5
:101F8000F583E0FF22286E756C6C2900D201121BCC
:101F9000413001F8C201780930D50108F6021BF082
:101FA0002D50434958121B412403B405004001E45D
:101FB000901FA093121B75743A121B75D2037509FA
:101FC00004021DC6D2AF9044F4E0FFEF54FDFFEFD2
:101FD000F09000207401F012701C1270D47B017A12
:101FE000017933C003C002C0017BFF7A707907908A
:101FF00001851209EF7BFF7A6979F4900188120953
:10200000EF7BFF7A5A791690018B1209EF7BFF7AEA
:102010006E791590018E1209EF7BFF7A6A79FF9035
:1020200001911209EF7BFF7A6B799E90019412095E
:10203000EF7BFF7A6B799E9001971209EFD001D068
:1020400002D0037D101238A47B017A017933C003DA
:10205000C002C0017BFF7A65791C9001851209EFEF
:102060007BFF7A6479A89001881209EFD001D00231
:10207000D0037D001262407B017A017933C003C036
:1020800002C0017BFF7A6579229001851209EF7BFE
:10209000FF7A4879239001881209EFD001D002D04D
:1020A000037D011262407B017A017933C003C002D3
:1020B000C0017BFF7A6579299001851209EF7BFFCA
:1020C0007A6879EC9001881209EFD001D002D00330
:1020D0007D021262407B017A017933C003C002C0E5
:1020E000017BFF7A65792E9001851209EF7BFF7ADB
:1020F0005079789001881209EFD001D002D0037D89
:10210000031262407B017A017933C003C002C0012F
:102110007BFF7A6579349001851209EF7BFF7A3273
:1021200079739001881209EFD001D002D0037D04A9
:102130001262407B017A017933C003C002C0017B87
:10214000FF7A65793B9001851209EF7BFF7A2B7945
:10215000F29001881209EFD001D002D0037D051260
:1021600062407B017A017933C003C002C0017BFF6A
:102170007A6579449001851209EF7BFF7A57799B44
:102180009001881209EFD001D002D0037D061262BF
:10219000407B017A017933C003C002C0017BFF7A22
:1021A0006579499001851209EF7BFF7A58793F9054
:1021B00001881209EFD001D002D0037D07126240DE
:1021C0007B017A017933C003C002C0017BFF7A65CD
:1021D000794E9001851209EF7BFF7A7079AE9001FC
:1021E000881209EFD001D002D0037D081262407B33
:1021F000017A017933C003C002C0017BFF7A65799F
:10220000559001851209EF7BFF7A7079C1900188A2
:102210001209EFD001D002D0037D091262407B0188
:102220007A017933C003C002C0017BFF7A65795C13
:102230009001851209EF7BFF7A6B796D900188120E
:1022400009EFD001D002D0037D0A1262407B017AEF
:10225000017933C003C002C0017BFF7A65796190C8
:1022600001851209EF7BFF7A52790C9001881209DF
:10227000EFD001D002D0037D0B1262407B017A01C6
:102280007933C003C002C0017BFF7A657968900191
:10229000851209EF7BFF7A5A79AC9001881209EF19
:1022A000D001D002D0037D0C1262407B017A01790B
:1022B00033C003C002C0017BFF7A65796E9001854F
:1022C0001209EF7BFF7A5C79699001881209EFD0DF
:1022D00001D002D0037D0D1262407B017A01793377
:1022E000C003C002C0017BFF7A657974900185123A
:1022F00009EF7BFF7A61793E9001881209EFD001E6
:10230000D002D0037D0E1262407B017A017933C086
:1023100003C002C0017BFF7A65797F9001851209B5
:10232000EF7BFF7A4479ED9001881209EFD001D05C
:1023300002D0037D0F1262407BFF7A657985C0036E
:10234000C002C00190017E1209CF89828A83D00128
:10235000D002D003120A917B017A007921124ED269
:102360007B017A0079777FB87E0B7D007C00C0040A
:10237000C005C006C0077F037E007D007C00900181
:10238000D01209B77F587E1B7D007C009001D412CB
:1023900009B7D007D006D005D0041265FA7B017AC0
:1023A0000079777D0A126D5A7B017A0079D37FE834
:1023B0007E037D007C00C004C005C006C0077F030B
:1023C0007E007D007C009001D01209B77F887E13CB
:1023D0007D007C009001D41209B7D007D006D0054B
:1023E000D0041265FA7B017A0079D37D0A126D5A06
:1023F0007B017A017933125CFB900022E0FFEFB49D
:1024000001EE900022E4F090002312095F7B017A34
:1024100000790078001207779000231209B77B013A
:102420007A00792112242A80C7229001811209EFB3
:102430009001811209CFE92412F9EA3400FA1269F5
:10244000B39001811209CF1243D39001811209CFB9
:10245000E92432F9EA3400FAC003C002C001900155
:10246000811209CFE92412F9EA3400FA90018712A7
:1024700009EFD001D002D003123724900181120954
:10248000CFE9248EF9EA3400FAC003C002C00190FB
:1024900001811209CFE92412F9EA3400FA90018788
:1024A0001209EFD001D002D003123724900181121B
:1024B00009CFE92416F9EA3400FA120925900181BE
:1024C0001209CFE924F6F9EA3400FA12094590011D
:1024D000811209CF120600FFEF30E731900181121F
:1024E00009CF120600FFEF547FFFEF12066890013C
:1024F000811209CFC003C002C0019001811209CF2F
:10250000120600FDD001D002D003124713900181C2
:102510001209CF120600FFEF5477FFEF120A672669
:10252000D501258002252F042821100000282190A4
:1025300001811209CFE92432F9EA3400FAC003C05C
:1025400002C0019001811209CFE9240AF9EA34009E
:10255000FA9001C71209EF9001811209CFE9241204
:10256000F9EA3400FA9001CA1209EFD001D002D082
:1025700003123CC89001811209CF7402120668222E
:102580009001811209CFE9240AF9EA3400FA12090C
:1025900025C006C0079001811209CFE924F6F9EAA7
:1025A0003400FA120925AD07AC06D007D006C3EDFA
:1025B0009FFFEC9EFE1272709001811209CFE924F8
:1025C00010F9EA3400FA12072DFDACF0C3EF9DEECE
:1025D0009C40030226C29001811209CF120600FF1F
:1025E000EF5488FFEF70030226869001811209CF15
:1025F000E92402F9EA3400FA120925C004C005C032
:1026000006C00790037512095FAB07AA06A905A8C3
:1026100004A804A905AA06AB07D007D006D005D0A8
:10262000041207847B327A0079007800C31208ED27
:1026300040030228219001811209CF74011206681B
:102640009001811209CFE9248EF9EA3400FAC0031F
:10265000C002C0019001811209CFE92406F9EA34D1
:1026600000FA9001C71209EF9001811209CFE92405
:1026700012F9EA3400FA9001CA1209EFD001D0022F
:10268000D003123CC8229001811209CF120600FF2C
:10269000EF4488FFEF1206689001811209CF1206FD
:1026A00000FFEF547FFFEF1206689001811209CFFF
:1026B000E92402F9EA3400FA120925900375120997
:1026C000B7229001811209CF120600FFEF5477FF65
:1026D000EF120668229001811209CFE92412F9EA6B
:1026E0003400FA120925C006C0079001811209CFF3
:1026F000E92406F9EA3400FA120925AD07AC06D040
:1027000007D006C3ED9FFFEC9EFE12727090018110
:102710001209CFE9240EF9EA3400FA12072DFDACB4
:10272000F0C3EF9DEE9C400302280F900181120937
:10273000CF120600FFEF5488FFEF70030227D390FB
:1027400001811209CFE92402F9EA3400FA120925BD
:10275000C004C005C006C00790037512095FAB072F
:10276000AA06A905A804A804A905AA06AB07D007CC
:10277000D006D005D0041207847B327A0079007825
:1027800000C31208ED40030228219001811209CFF5
:10279000E41206689001811209CFE92402F9EA34B3
:1027A00001FAC003C002C0019001811209CFE924DF
:1027B000FAF9EA3400FAA801AC02AD03D001D00264
:1027C000D0037E007F08120BCC7BFF7A71791D123B
:1027D0006B9E229001811209CF120600FFEF448800
:1027E000FFEF1206689001811209CF120600FFEF79
:1027F000547FFFEF1206689001811209CFE924028D
:10280000F9EA3400FA1209259003751209B72290EB
:1028100001811209CF120600FFEF5477FFEF120675
:1028200068229001CD1209EF9001D01209CF120950
:10283000259001CD1209CFE9240CF9EA3400FA12EF
:1028400009459001D01209CF1209257B007A007941
:10285000007800D31208D7500B9001D01209CF1284
:102860000925800C9001D01209CF1209251208C940
:102870009001E71209B79001CD1209CFE92404F9BC
:10288000EA3400FA120997C000C001C002C00390E8
:1028900001CD1209CF12072DFDACF0EC120347D089
:1028A00003D002D001D00012021B1203809001CD90
:1028B0001209CFE9241EF9EA3400FAEE8FF012076C
:1028C000589001CD1209CFE92408F9EA3400FA1230
:1028D0000997C000C001C002C0039001CD1209CF0A
:1028E00012072DFDACF0EC120347D003D002D0014B
:1028F000D00012021B1203809001DF1209B7900171
:10290000CD1209CFE9241EF9EA3400FA12072DFF8F
:10291000AEF09001CD1209CF12072DFDACF01206DA
:102920007A7C007D021206E1EE3395E0FDFC900119
:10293000D31209B79001CD1209CF12072DFFAEF0C7
:10294000EE3395E0FDFC9001DF12097B1207927BCC
:10295000027A00790078001268A89001DB1209B7AA
:102960009001D312097B9001E712095F120784904E
:1029700001DB12097B1207849001D71209B790017D
:10298000CD1209CFE9241EF9EA3400FA12072DFF0F
:10299000AEF0EE3395E0FDFCC004C005C006C007F4
:1029A0009001CD1209CF12072DFFAEF0AB07AA069A
:1029B000EA3395E0F9F89001D712095F1268A8A8E8
:1029C00004A905AA06AB07D007D006D005D004128B
:1029D00007779001E31209B79001E312095FAB0793
:1029E000AA069001DF12095FEF2BFFEE3AFE90017D
:1029F000CD1209CFE92422F9EA3400FAEE8FF01261
:102A000007589001CD1209CFE9241EF9EA3400FAE3
:102A100012072DFFAEF0EE3395E0FDFC9001E312BE
:102A2000097BC31208D74003022B8C9001CD1209F9
:102A3000CFE92404F9EA3400FA1209259001CD12F5
:102A400009CFE92408F9EA3400FA120997120112B1
:102A5000C004C005C006C0077F027E007D007C0068
:102A60009001E712097B120792EC120342A804A915
:102A700005AA06AB07D007D006D005D00412011274
:102A8000C004C005C006C0079001CD1209CFE924DB
:102A900004F9EA3400FA1209259001CD1209CFE9B0
:102AA0002408F9EA3400FA120997120021A804A9AF
:102AB00005AA06AB07D007D006D005D00412021B2A
:102AC0001255A19001EB1209B79001EB12095F12A8
:102AD00003809001CD1209CFEE8FF01207589001BC
:102AE000CD1209CFE92404F9EA3400FA12099790CB
:102AF00001EB12095F12021B1203809001CD120933
:102B0000CFE92420F9EA3400FAEE8FF0FEAFF0129C
:102B100007589001CD1209CFE9241EF9EA3400FAD2
:102B2000EE8FF01207589001CD1209CFE92408F971
:102B3000EA3400FA1209979001EB12095F12021BA6
:102B4000C004C005C006C0079001CD1209CFE9241A
:102B500020F9EA3400FA12072DFDACF0EC1203471D
:102B6000A804A905AA06AB07D007D006D005D00453
:102B70001200211203809001CD1209CFE92422F91D
:102B8000EA3400FAEE8FF0120758801A9001E3122F
:102B9000095F9001CD1209CFE92420F9EA3400FA47
:102BA000EE8FF01207587F007E007D007C009001C0
:102BB000CD1209CFE9241AF9EA3400FA1209457F47
:102BC000007E007D007C009001CD1209CFE9241425
:102BD000F9EA3400FA1209457F007E007D007C008E
:102BE0009001CD1209CFE92410F9EA3400FA120954
:102BF00045229001811209EF9001C3E4F0A3E4F0B3
:102C00009001C5E4F0A3E4F09001C7E4F0A3E4F080
:102C10009001841209CFC003C002C0017B017A0178
:102C200079AFA801AC02AD03D001D002D003120EDF
:102C30001D9001811209CF125D8BC003C002C0013B
:102C40007B017A017991A801AC02AD03D001D002D9
:102C5000D003120E1D124DF79001C3EEF0A3EFF05A
:102C60009001811209CF125D8BC003C002C0017BAD
:102C7000017A01799BA801AC02AD03D001D002D04A
:102C800003120E1D124DF79001C5EEF0A3EFF09068
:102C900001811209CF125D8BC003C002C0017B010C
:102CA0007A0179A5A801AC02AD03D001D002D0030E
:102CB000120E1D124DF79001C7EEF0A3EFF0900138
:102CC000AFE0FFEF120A672CD1612DBA6400002E2D
:102CD000A27B017A0079779001C3E0FEA3E0FFEECA
:102CE0003395E0FDFCC004C005C006C0079001C5D7
:102CF000E0FEA3E0FFEE3395E0FDFC9001D0120969
:102D0000B79001C7E0FEA3E0FFEE3395E0FDFC9035
:102D100001D41209B7D007D006D005D0041265FA45
:102D20007B017A017987C003C002C0017BFF7A432F
:102D300079309001EE1209EF90007712095F90014F
:102D4000F11209B790007B12095F9001F51209B7E3
:102D500090007F12095F9001F91209B7D001D002EB
:102D6000D003121BA67B017A017987C003C002C081
:102D7000019001811209CFE92448F9EA3400FA12DE
:102D800009F889828A83D001D002D003120A917B8C
:102D9000FF7A43794AC003C002C001900181120941
:102DA000CFE9244BF9EA3400FA1209F889828A83C0
:102DB000D001D002D003120A91227B017A0079D38C
:102DC0009001C3E0FEA3E0FFEE3395E0FDFCC004FC
:102DD000C005C006C0079001C5E0FEA3E0FFEE33CA
:102DE00095E0FDFC9001D01209B79001C7E0FEA369
:102DF000E0FFEE3395E0FDFC9001D41209B7D00757
:102E0000D006D005D0041265FA7B017A017987C01B
:102E100003C002C0017BFF7A4379309001EE1209B2
:102E2000EF9000D312095F9001F11209B79000D71B
:102E300012095F9001F51209B79000DB12095F904B
:102E400001F91209B7D001D002D003121BA67B01F1
:102E50007A017987C003C002C0019001811209CFB5
:102E6000E92448F9EA3400FA1209F889828A83D001
:102E700001D002D003120A917BFF7A43794AC00342
:102E8000C002C0019001811209CFE9244BF9EA3454
:102E900000FA1209F889828A83D001D002D0031285
:102EA0000A912290018E1209EF90018E1209CFE94A
:102EB0002414F9EA3400FA120925EC1203429001B5
:102EC0008E1209CFE92408F9EA3400FA12099712A0
:102ED000021B1203809001911209B790018E120912
:102EE000CFE92420F9EA3400FA12072DFFAEF0EE04
:102EF0003395E0FDFC90018E1209CFE9241AF9EA1E
:102F00003400FA120997C31208ED400302308D9085
:102F1000018E1209CFE9241EF9EA3400FA12072DB6
:102F2000FFAEF0EE3395E0FDFC90018E1209CFE983
:102F3000241AF9EA3400FA120997C31208ED504C2A
:102F400090018E1209CFE9241AF9EA3400FA120925
:102F50002590018E1209CFE9241EF9EA3400FAEE19
:102F60008FF012075890018E1209CFE9241AF9EA5E
:102F70003400FA12092590018E1209CFE92420F9B4
:102F8000EA3400FAEE8FF0120758802590018E1275
:102F900009CFE9241AF9EA3400FA12092590018EC2
:102FA0001209CFE92420F9EA3400FAEE8FF0120773
:102FB0005890018E1209CFE9241AF9EA3400FA1266
:102FC0000925AB07AA0690019112095FEB2FFFEAD2
:102FD0003EFE90018E1209CFE92422F9EA3400FA6C
:102FE000EE8FF012075890018E1209CFE9240CF9E8
:102FF000EA3400FA1209257B007A0079007800C3D0
:103000001208D7503B90018E1209CFE92414F9EA37
:103010003400FA12092590019112097B1207927B64
:10302000027A00790078001268A890018E1209CF08
:10303000E92410F9EA3400FA120997120777803C64
:1030400090018E1209CFE92414F9EA3400FA12092A
:103050002590019112097B1207927B027A00790078
:1030600078001268A890018E1209CFE92410F9EABD
:103070003400FA1209971207771208C990018E12CC
:1030800009CFE9240CF9EA3400FA1209452290012B
:10309000D21209EF9001D21209CFE92404F9EA34DF
:1030A00000FA1209259001D21209CFE92404F9EAA5
:1030B0003400FA120997120112C004C005C006C0FC
:1030C000079001D21209CF1209259001D21209CF1F
:1030D000120997120112A804A905AA06AB07D00786
:1030E000D006D005D0041200211255A11203809001
:1030F00001D51209CF1209459001D21209CF120948
:10310000257B007A00790078001202B86002500333
:103110000231C99001D21209CFE92404F9EA34003E
:10312000FA1209257B007A00790078001202B86053
:103130004D404B9001D21209CFE92404F9EA340042
:10314000FA1209259001D21209CF12099712021B17
:103150001240927BDB7A0F794978C01200217B28DC
:103160007A2579D978441201121203809001D51280
:1031700009CFE92404F9EA3400FA12094522900142
:10318000D21209CFE92404F9EA3400FA1209259091
:1031900001D21209CF12099712021B1240927BDB57
:1031A0007A0F794978401200217B287A2579D978DD
:1031B000441201121203809001D51209CFE92404B0
:1031C000F9EA3400FA120945229001D21209CF120D
:1031D00009257B007A00790078001202B8604090DF
:1031E00001D21209CFE92404F9EA3400FA120925C0
:1031F0009001D21209CF12099712021B1240927B42
:10320000287A2579D978441201121203809001D5C9
:103210001209CFE92404F9EA3400FA120945229090
:1032200001D21209CFE92404F9EA3400FA1209257F
:103230007B007A00790078001202B8601C401A7F87
:10324000587EF57DFF7CFF9001D51209CFE924045B
:10325000F9EA3400FA120945227FA87E0A7D007C33
:10326000009001D51209CFE92404F9EA3400FA12DA
:103270000945229001811209EF9001841209CF12B1
:103280000600FFEF120A67329161330E64000033CB
:103290007E9001811209CF125D8BC003C002C00174
:1032A0007B017A01799BA801AC02AD03D001D00269
:1032B000D003120E1D124DF7AC06AD07EC120347FA
:1032C0007B9F7A8B79AA78451201127B007A00796C
:1032D00034784312021B1203809001AF1209B77BAE
:1032E000017A007953C003C002C0017B017A0179E1
:1032F000AF9001C71209EF7B017A0079339001CAC0
:103300001209EFD001D002D003123CC880709001A6
:10331000811209CF125D8BC003C002C0017B017A0C
:1033200001799BA801AC02AD03D001D002D00312F9
:103330000E1D124DF7AC06AD07EC1203477B147A55
:103340004C79B978401201121203809001AF120932
:10335000B77B017A0079AFC003C002C0017B017A5C
:103360000179AF9001C71209EF7B017A00793390A0
:1033700001CA1209EFD001D002D003123CC87B0170
:103380007A017987C003C002C0017BFF7A437915B7
:103390009001EE1209EF9001841209CF9001F11211
:1033A00009EF7B017A01799B9001F41209EFD001BA
:1033B000D002D003121BA67B017A017987C003C01B
:1033C00002C0019001811209CFE92448F9EA3400D2
:1033D000FA1209F889828A83D001D002D003120A36
:1033E000917BFF7A43791DC003C002C00190018127
:1033F0001209CFE9244BF9EA3400FA1209F889825C
:103400008A83D001D002D003120A912290018A123D
:1034100009EF90018D1209B790018A1209CFE924B2
:1034200011F9EA3400FA12099790018D12095F121E
:1034300007849001911209B790018A1209CFE924FB
:103440000DF9EA3400FAC003C002C0011209259048
:10345000018D12097B120777D001D002D003120927
:103460004590018A1209CFE92404F9EA3400FA12DE
:10347000092590018A1209CFE9240DF9EA3400FAEE
:10348000120997120792C004C005C006C007900138
:103490008A1209CF12092590018D12097B12079219
:1034A000A804A905AA06AB07D007D006D005D0040A
:1034B000120777C004C005C006C00790018A120930
:1034C000CFE92408F9EA3400FA1209259001911293
:1034D000097B120792A804A905AA06AB07D007D05A
:1034E00006D005D0041207779001951209B77F0026
:1034F0007E007D007C0090019512097BC31208D7E5
:10350000502B90018A1209CFE9240CF9EA3400FA11
:10351000120600F990019512095F1208C9A801125C
:1035200008FE1208C99001951209B78023900195F1
:1035300012095F90018A1209CFE9240CF9EA3400DC
:10354000FA120600F9A8011208FE9001951209B7B7
:1035500090018D12095F90018A1209CFE92411F9B7
:10356000EA3400FA12094590019112095F90018A2C
:103570001209CFE92415F9EA3400FA12094590013D
:103580009512095F90018A1209CFE92419F9EA34EA
:1035900000FA12094590019512095F223A70FA83E8
:1035A000BCAAE9E43E81E0F8BF9DE9E63F80000067
:1035B00039283C1ABB9969663DA335E3BF255DE711
:1035C0003FC90FDB418DDBCCC44936EE45C9913F85
:1035D000C5B0F83D3F800000C317F534452FFA739E
:1035E000C60AFDDD1236A504A2E192001420E01502
:1035F00090359C740412054380301236A530E102E8
:10360000B20020E0EBA883A9829001CA1209B78911
:103610008288839035B074041205438582F090014E
:10362000CA12097B85F082120112ED4C600730004E
:1036300004EC6480FC221236A5C0E0A883A9829025
:1036400001CA1209B7898288839035D474031205A0
:10365000438582F09001CA12097B85F08212011223
:103660009001CAE0CCF0A3E0CDF0A3E0CEF0A3E05F
:10367000CFF09035C47403120543D0828582F09058
:1036800001CA12097B85F082E58230E00712021B35
:10369000B2008096EFCBFFEECAFEEDC9FDECC8FC90
:1036A00012021B8085ED33EC547FCC3392002460F2
:1036B0005007D0E0D0E00203EC7B837AF9792278DE
:1036C0003E120112EDF933ECF83324815011EFFB77
:1036D000EEFA120380120342ECB2E7FC120021ED75
:1036E00033EC33602F2403F8C313FCED92E7FDE8BD
:1036F0002481E4501FECF8EDF9EEFAEFFB120380A1
:10370000EF04C2E0FCF58212034CECB2E7FC1200BD
:1037100021E58203FAED33EC3360071413FCED92DC
:10372000E7FDEA229001841209EF9001841209CF8B
:10373000C003C002C0019001841209CFE9244EF9F0
:10374000EA3400FA90018D1209EFD001D002D003C3
:10375000120ECA9001841209CFE92441F9EA34001B
:10376000FA120600FFEFB4011C9001871209CF1274
:1037700009259001841209CFE92442F9EA3400FABC
:1037800012094580229001871209CFE92404F9EA41
:103790003400FA1209259001841209CFE92442F974
:1037A000EA3400FA1209459001841209CFE9244253
:1037B000F9EA3400FA120997C000C001C002C00340
:1037C0009001841209CFE9244EF9EA3400FA120973
:1037D00025D003D002D001D00012078490018412BA
:1037E00009CFE92446F9EA3400FA1209971207775B
:1037F0009001841209CFE92452F9EA3400FA12093F
:10380000459001841209CFE92424F9EA3400FAC072
:1038100003C002C0019001841209CFE92452F9EAE1
:103820003400FA120925D001D002D00312340C90D2
:1038300001841209CFE92456F9EA3400FA12094545
:103840009001841209CFE92441F9EA3400FA120602
:1038500000FFEFB401279001871209CFC003C00217
:10386000C0019001841209CFE92456F9EA3400FA24
:10387000120925D001D002D0031263B6229001872D
:103880001209CFC003C002C0019001841209CFE920
:103890002456F9EA3400FA120925D001D002D003E7
:1038A00012633C229001811209EF900184EDF07EB9
:1038B000007F327D019001811209CF120AE490014C
:1038C000811209CFE92431F9EA3400FAE4120668DA
:1038D000900184E0FF9001811209CFE92435F9EAD3
:1038E0003400FAEF120668900184E0FF7E06EF8E46
:1038F000F0A4FFAEF0124FA7AA06A9077B01C003F0
:10390000C002C0019001811209CFE92436F9EA34DE
:1039100000FA120A189001811209CFE92432F9EA5B
:103920003400FAE41206689001811209CFE92433C9
:10393000F9EA3400FA74011206689001811209CF85
:10394000E92434F9EA3400FA74011206689001851A
:103950001209CFC003C002C0019001811209CFE952
:103960002439F9EA3400FA120A189001881209CFB2
:10397000C003C002C0019001811209CFE9243CF9C3
:10398000EA3400FA120A1890018B1209CFC003C062
:1039900002C0019001811209CFE9243FF9EA340005
:1039A000FA120A1890018E1209CFC003C002C0019A
:1039B0009001811209CFE92442F9EA3400FA120A8F
:1039C000189001911209CFC003C002C0019001817B
:1039D0001209CFE92445F9EA3400FA120A189001D5
:1039E000941209CFC003C002C0019001811209CF17
:1039F000E92448F9EA3400FA120A189001971209EA
:103A0000CFC003C002C0019001811209CFE9244B4D
:103A1000F9EA3400FA120A182290480074F1F07B97
:103A2000007A4679E8127240EF4405FD7B007A4641
:103A300079E812724C1251427B017A50790312726A
:103A400040EF4402FD7B017A50790312724C7B01F6
:103A50007A507913127240EF4402FD7B017A50795B
:103A60001312724C9043A0E0FFEF4440FF9043A03C
:103A7000EFF09043C2E0FFEF4410FF9043C2EFF03D
:103A80007B087A1879F8C003C002C0017B007A5124
:103A900079029001381209EFD001D002D0037F08DB
:103AA0007E00126AA47B087A197900C003C002C0A4
:103AB000017B007A5179C29001381209EFD001D010
:103AC00002D0037F087E00126AA47B087A19790865
:103AD000C003C002C0017B007A5179F29001381214
:103AE00009EFD001D002D0037F087E00126AA47BC8
:103AF000087A197910C003C002C0017B007A51799D
:103B0000329001381209EFD001D002D0037F087E35
:103B100000126AA47B017A08795B7D8412724C7B67
:103B2000017A0C79DB7D4412724C9044F47401F0FC
:103B3000904689743AF09048007431F012493290FE
:103B4000480074B1F0126A6E7B007A4379A0C0031A
:103B5000C002C0017B007A4379B09001381209EFAE
:103B6000D001D002D0037F0E7E00126AA49043B031
:103B7000E0FFEF54FDFF9043B0EFF0227593007823
:103B8000007583467582E8E04401F0009046ECE061
:103B9000F99046FAE0FAB903225420B40012B800B2
:103BA0001AEA901FFFF07401901FFEF09046F6F0A5
:103BB000901FFEE06005901FFFE0FA90480074C07F
:103BC000F07581219076BCE4F0A3F0A3F0A3F0900F
:103BD0007010F0907019F0907020F09076007410D2
:103BE000F0907604E4F0A3F0A3F0A3F090780078CE
:103BF00000087400F0A37408F0E8B8040274FFA38E
:103C0000F0A37422F0A374BCF0A37476F0A3E4F0E4
:103C1000A3E81475F008A4F0A3B804D5907010744C
:103C200001F0907014F07E707F18120004907010F4
:103C3000F0EA900370F0020011750D20750E00126D
:103C40003A19126812023C83021FC4E493A3F8E4F9
:103C500093A34003F68001F208DFF48029E493A3E4
:103C6000F85407240CC8C333C4540F4420C88340FD
:103C700004F456800146F6DFE4800B0102040810CC
:103C80002040809060BBE47E019360BCA3FF543F62
:103C900030E509541FFEE493A360010ECF54C02504
:103CA000E060A840B8E493A3FAE493A3F8E493A3F4
:103CB000C8C582C8CAC583CAF0A3C8C582C8CAC558
:103CC00083CADFE9DEE780BE9001C41209EF9001EC
:103CD000C71209CF1209259001C41209CFE9244A5D
:103CE000F9EA3400FA1209459001C41209CFE92417
:103CF00041F9EA3400FA120600FFEF6401707A908D
:103D000001CA1209CF120997C000C001C002C00346
:103D10009001C71209CF120925D003D002D001D0DB
:103D2000001207849001C41209CFE92446F9EA344D
:103D300000FA1209459001C41209CFC003C002C0A5
:103D4000019001C41209CFE92446F9EA3400FA903F
:103D500001D01209EFD001D002D003122822900125
:103D6000CA1209CF1209259001C41209CFE92446CD
:103D7000F9EA3400FA120945229001CA1209CFE982
:103D80002404F9EA3400FA120997C000C001C00205
:103D9000C0039001C71209CF120925D003D002D069
:103DA00001D0001207849001C41209CFE92446F91A
:103DB000EA3400FA1209459001C41209CFC003C0C9
:103DC00002C0019001C41209CFE92446F9EA340087
:103DD000FA9001D01209EFD001D002D003122822AC
:103DE0009001CA1209CFE92404F9EA3400FA120951
:103DF000259001C41209CFE92446F9EA3400FA12E9
:103E00000945229001AC1209EF9001B0E4F0900155
:103E1000AC1209CFE92434F9EA3400FA120600FFA3
:103E2000EF7003023F389001AC1209CFE9243FF94B
:103E3000EA3400FA1209F8120A8D9001AFEFF090FF
:103E400001AC1209CFE92432F9EA3400FA12060073
:103E5000FFEFC394324003023F389001AFE0FFEF21
:103E60007003023F389001AFE0FFEF640A70030275
:103E70003F389001AFE0FFEF647F7003023F38905E
:103E800001AFE0FFEF640B7003023F389001AFE039
:103E9000FFEF64097003023F389001AFE0FFEF6469
:103EA000087003023F389001AFE0FFEF640D704EE1
:103EB0009001AC1209CFE92432F9EA3400FA120673
:103EC00000FF9001AC1209CFE92FF9E43AFAE412AD
:103ED00006689001AC1209CFE92432F9EA3400FAFD
:103EE000E41206689001B07401F09001AC1209CFA1
:103EF000E92434F9EA3400FAE4120668803A9001C1
:103F0000AFE0FF9001AC1209CFE92432F9EA3400A6
:103F1000FA120600FE9001AC1209CFE92EF9E43A3C
:103F2000FAEF1206689001AC1209CFE92432F9EADF
:103F30003400FA74011206469001B0E0FF229001AD
:103F40008A1209EF90018DEDF090018DE0FF900154
:103F50008A1209CFE92441F9EA3400FAEF1206681F
:103F60007F007E007D007C0090018A1209CFE92449
:103F700042F9EA3400FA1209457F007E007D007C98
:103F80000090018A1209CFE9244AF9EA3400FA12B2
:103F900009457F007E007D007C0090018A1209CFD8
:103FA000E9244EF9EA3400FA1209457F007E007DCB
:103FB000007C0090018A1209CFE92452F9EA34000A
:103FC000FA1209457F007E007D007C0090018A1274
:103FD00009CFE92456F9EA3400FA12094590018A1A
:103FE0001209CFE9245AF9EA3400FAE475F0001214
:103FF000075890018A1209CFE92424F9EA3400FA1B
:10400000126C9F90018DE0FFEFB4023390018A1291
:1040100009CF900193E4F0A37419F07F837EAC7D07
:10402000467C3E9001951209B77F837EAC7D467C2D
:104030003E9001991209B77D197C00124603229027
:10404000018A1209CF900193E4F0A3740AF07F6211
:104050007E017D157C3F9001951209B77F627E013C
:104060007D157C3F9001991209B77D0A7C001246AC
:104070000322BE1249253E4CCCCDBEAAAAAB3F803E
:1040800000003E7ADBB03EED63383F24BC7D3F4903
:104090000FDBED33ECC2E7CC339200B4FF13ED54E9
:1040A0007F60030203EC7FDB7E0F7DC97C3F024112
:1040B00087C201C3947F401E7007EDD2E794904001
:1040C00015EFFBEEFAEDF9ECF87F007E007D807CC9
:1040D0003F12021BD201ED33EC33248430E705E4B8
:1040E000C0E0806B04FAEDD2E754F0C333DAFD543C
:1040F0000734002323C0E0CCC0E0F8EDC0E0F9EEC7
:10410000C0E0FAEFC0E0FBE412034CEC24FEFC90AC
:1041100001D81209B71201127B007A007980783F2A
:104120001200219001D8E0B2E7CCF0A3E0CDF0A3DB
:10413000E0CEF0A3E0CFF0D0E0FBD0E0FAD0E0F9A1
:10414000D0E0F81200219001D812097B12021B90D6
:1041500001D81209B790407274031205439001D838
:1041600012097B120112D0E0600F247EF582E43444
:1041700040F58312098712002130010B7BDB7A0F97
:1041800079C978BF120021ED33EC336006ECA20050
:1041900092E7FC229001C41209EF9001C71209B7FF
:1041A0009001C712095F127270AC06AD07EC1203E2
:1041B000477B9F7A8B79AA78451202B8506A7F00B4
:1041C0007E007D007C009001C712097BD31208D7C6
:1041D000402B9001C712095FEC1203427B9F7A8B40
:1041E000792A78C61200211203809001C41209CFE7
:1041F000E9240AF9EA3400FA12094580429001C71D
:1042000012095FEC1203427B9F7A8B792A7846125F
:1042100000211203809001C41209CFE9240AF9EAAF
:104220003400FA12094580179001C712095F900106
:10423000C41209CFE9240AF9EA3400FA12094590B8
:1042400001C41209CFE924FAF9EA3400FAC003C024
:1042500002C0019001C41209CFE924FAF9EA34003E
:10426000FAA801AC02AD03D001D002D0037E007FDA
:1042700008120BCC9001C41209CFE9240AF9EA34E0
:1042800000FAC003C002C0011209259001C412093E
:10429000CFE924F6F9EA3400FA120997120777D029
:1042A00001D002D0031209459001C41209CF740451
:1042B0001206682220004E41434B0D005144206CF1
:1042C000656674203D20256C642051442072696726
:1042D0006874203D20256C640D00416E676C654359
:1042E000203D20256C640A0D44697374616E63651A
:1042F00043203D2025660A0D3E0078203D2025669E
:104300000A0D79203D2025660A0D3E007265736511
:10431000740A0D3E0025732025730D0A00636F6E2D
:104320007369676E20757064617465640A0D3E0080
:1043300070203D20256C642069203D20256C642080
:1043400064203D20256C640D0A005049442075709E
:1043500064617465640A0D3E00636F6D706172651F
:104360002076616C75652075706461746564207475
:104370006F2025750D0A3E0053544F502021616176
:1043800061610D00676F746F2078203D20256620E5
:1043900079203D2025660D0A00676F746F20616EDD
:1043A000676C6520256C640D0A3E00676F746F2092
:1043B00064697374616E636520256C640D0A3E0048
:1043C0006D756C7469706C65207879207365747490
:1043D0006564009001841209EF9001841209CFE90D
:1043E000240AF9EA3401FA120997C000C001C00298
:1043F000C0039001841209CFE92412F9EA3400FACB
:10440000120925D003D002D001D0001207849001F8
:10441000871209B79001841209CFE9240EF9EA3412
:1044200001FA1209259001841209CFE92416F9EA4C
:104430003400FA12099712077778011208FE9001EA
:104440008B1209B77B017A017987C003C002C001D2
:104450007B017A01798F9001C71209EFD001D00258
:10446000D0031252D39001841209CFE92406F9EA4D
:104470003401FAC003C002C0011209259001931251
:10448000097B120021D001D002D00312094590010E
:10449000841209CFE92402F9EA3401FAC003C00208
:1044A000C00112092590018F12097B120021D00151
:1044B000D002D0031209459001841209CFE92412D9
:1044C000F9EA3400FAC003C002C001900184120965
:1044D000CFE9240AF9EA3401FAA801AC02AD03D00D
:1044E00001D002D0037E007F08120BCC2290018104
:1044F0001209EF9001841209CF12685F7B147A4C85
:1045000079B978401201129000001209B790018128
:104510001209CF125D8B12685F7B147A4C79B978DF
:10452000401201129000041209B79001811209CFC4
:10453000125D8B12685F7B147A4C79B97840120156
:10454000129000081209B79001811209CF125D8BF9
:1045500012685F7B147A4C79B9784012011290008E
:104560000C1209B79001811209CF125D8B12685F9E
:104570007B147A4C79B9784012011290001012091C
:10458000B79001811209CF125D8B12685F7B147A9C
:104590004C79B978401201129000141209B79001B9
:1045A000811209CF125D8B12685F7B147A4C79B946
:1045B00078401201129000181209B7900181120977
:1045C000CF125D8B12685F7B147A4C79B9784012F8
:1045D000011290001C1209B77BFF7A4379C0C00317
:1045E000C002C0019001811209CFE9244BF9EA34DD
:1045F00000FA1209F889828A83D001D002D003120E
:104600000A912290018E1209EF900191ECF0A3ED36
:10461000F0900191E0FEA3E0FF90018E1209CFEE31
:104620008FF0120758900193E0FEA3E0FF90018EF7
:104630001209CFE92402F9EA3400FAEE8FF01207EA
:104640005890019512095F90018E1209CFE9240458
:10465000F9EA3400FA12094590019912095F9001B4
:104660008E1209CFE92408F9EA3400FA1209457FCD
:10467000007E007D007C0090018E1209CFE9240CA1
:10468000F9EA3400FA1209457F007E007D007C00C3
:1046900090018E1209CFE92410F9EA3400FA1209C8
:1046A000457F007E007D007C0090018E1209CFE9DD
:1046B0002414F9EA3400FA1209457F007E007D00D7
:1046C0007C0090018E1209CFE9241AF9EA3400FA2D
:1046D00012094590018E1209CFE9241EF9EA34002F
:1046E000FAE475F00012075890018E1209CFE92400
:1046F00020F9EA3400FAE475F00012075890018EB0
:104700001209CFE92422F9EA3400FAE475F0001224
:104710000758229001841209EF900187EDF0900173
:1047200087E0FFEF5477FFEF120A674771014743B5
:1047300002473804000048229001841209CFE41295
:104740000668229001841209CFE92412F9EA3400A4
:10475000FA1209259001841209CFE92406F9EA34F6
:1047600000FA1209459001841209CF7402120668FA
:10477000229001841209CFE9248EF9EA3400FAC0AC
:1047800003C002C0019001841209CFE92412F9EAA2
:104790003400FA90018B1209EFD001D002D003123D
:1047A0005BD69001841209CFE924D8F9EA3400FAE3
:1047B0001209259001841209CFE92406F9EA340090
:1047C000FA1209459001841209CFE9247CF9EA34F0
:1047D00000FA1209259001841209CFE9240AF9EAA6
:1047E0003400FA1209459001841209CFE92406F930
:1047F000EA3400FAC003C002C0019001841209CF5C
:10480000E924EEF9EA3400FA9001C71209EFD00169
:10481000D002D0031252D39001841209CF74011236
:104820000668229001811209EF7B017A017987C025
:1048300003C002C0017BFF7A4279DA9001EE1209CF
:10484000EF7FB47E007D007C0090003712097B1260
:104850000792EC1203427B9F7A8B79AA7845120269
:104860001B1203809001F11209B790003312095F07
:10487000EC1203427B147A4C79B9784012021B90F7
:1048800001F51209B7D001D002D003121BA67B019B
:104890007A017987C003C002C0019001811209CF5B
:1048A000E92448F9EA3400FA1209F889828A83D0A7
:1048B00001D002D003120A917B017A017987C003EB
:1048C000C002C0017BFF7A4279FA9001EE1209EF33
:1048D0007B147A4C79B9784090012312095F120257
:1048E0001B9001F11209B77B147A4C79B97840908A
:1048F000012712095F12021B9001F51209B7D001BE
:10490000D002D003121BA67B017A017987C003C0B5
:1049100002C0019001811209CFE92448F9EA34006C
:10492000FA1209F889828A83D001D002D003120AD0
:1049300091227E017F33900137EEF0A3EFF07B00F0
:104940007A4079807F197E007D187C001270FA9081
:1049500043007402F09040007408F0904200740329
:10496000F07B0C7A0179081272409046A1EFF07B3F
:10497000007A4279227D087C001271AA7B007A427B
:1049800079207D517C101271AA900139E4F07F19D1
:104990007E007D007C009001331209B7900137E062
:1049A000FEA3E0FF8F828E8312095FEC4D4E4F60B5
:1049B0004E900139E0FFEF64036044904225E0FF30
:1049C000EF5401FF7E00900139E0FEEE25E0FEEE9F
:1049D0004FFFEF5403FF900139EFF07FE07E017D40
:1049E000007C00126B0090013312095F7BFF7AFF9D
:1049F00079FF78FF1207779001331209B7809D7B0A
:104A0000007A4079047D037C011271AA904004E48D
:104A1000F09040047407F0904006E4F09040087471
:104A200048F0904004E4F09040017402F09043A2FA
:104A3000E0FFEF4401FFEFF0229001AC1209EF908C
:104A400001B5E4F07B007A0079009001B61209EF1D
:104A50009001AC1209CFE92435F9EA3400FA1206C4
:104A600000FF9001B5E0FEEEC39F50519001AF12E0
:104A700009CFC003C002C0019001AC1209CFE924E4
:104A800036F9EA3400FA1209F89001B5E0FF75F042
:104A900006EFA4F58285F083E92582F9EA3583FAE9
:104AA0001209F8A801AC02AD03D001D002D0031264
:104AB0000D48EF60089001B5E004F080939001B5D7
:104AC000E0FFEFC39411504A9001B21209CFC00326
:104AD000C002C0019001AC1209CFE92436F9EA34D2
:104AE00000FA1209F89001B5E0FF7E06EF8EF0A4FF
:104AF000FFAEF0E92FF9EA3EFAE92403F9EA3400BF
:104B0000FA1209F889828A83D001D002D003120AEE
:104B100091227BFF7A4279B6C003C002C0019001A6
:104B2000AC1209CFE9244BF9EA3400FA1209F889EA
:104B3000828A83D001D002D003120A91229001D23E
:104B40001209B774FFFFFEFDFC9001D2E0F8A3E06C
:104B5000F9A3E0FAA3E0FBC31208ED60387F807E82
:104B6000967D187C4B9001D2E0F8A3E0F9A3E0FA1F
:104B7000A3E0FB1202B86002501B7F807E967D1876
:104B80007CCB9001D2E0F8A3E0F9A3E0FAA3E0FB2C
:104B90001202B8500F9001D2E0FCA3E0FDA3E0FEAA
:104BA000A3E0FF229001D2E0FCA3E0FDA3E0FEA37E
:104BB000E0FF1203809001D61209B79001D6E0FC05
:104BC000A3E0FDA3E0FEA3E0FFEC120342C8ECC8A3
:104BD000C9EDC9CAEECACBEFCB9001D2E0FCA3E08D
:104BE000FDA3E0FEA3E0FF12001DE4FBFAF9F812BA
:104BF00002B8602640249001D6E0FCA3E0FDA3E0CB
:104C0000FEA3E0FFEF24FFFFEE34FFFEED34FFFDD7
:104C1000EC34FFFC9001D61209B79001D6E0FCA35A
:104C2000E0FDA3E0FEA3E0FFEC12034222C201C2BA
:104C300002C203C204F9E4F508F509FCFDFEFFE930
:104C40001000EA20030CB42D04D203D322B42B02AB
:104C5000D32224D0504794095041240A300415F837
:104C60008509F0740AA42872E74051C5F0704D859B
:104C7000F009D322D202C0E0E4FBFA792078411295
:104C80000112ECF8EDF9EEFAEFFBD0E0FCE41203D0
:104C90004C1200213001B41508D322240A2004202C
:104CA000B4FE0720011AD201D32224EB600424E0D1
:104CB000700EA2039201D204C203D322C30203ECFA
:104CC000E430040BE509300302F404A2019203303E
:104CD00002EA250820D2E5A2E792045002F404B4C7
:104CE000260050D8CCC0E0EDC0E0EEC0E0EFC0E060
:104CF000EC1205C0D0E0FFD0E0FED0E0FDD0E0FC3B
:104D0000200405120112800312021B300303120358
:104D100031C3229001CFEBF0A3EAF0A3E9F09001B8
:104D2000CFE0FBA3E0FAA3E04A4B701590039EE0AE
:104D3000F9A3E0FAA3E09001CFC9F0A3EAF0A3E958
:104D4000F09001CFE0FBA3E0FAA3E04A4B7004FB34
:104D5000FAF9229001D2E0F9A3E0FAA3E09001D899
:104D6000C9F0A3EAF0A3E9F09001CFE0FBA3E0FAD9
:104D7000A3E0F91260379001D0EE8FF01207179080
:104D800001CFE0FBA3E0FAA3E0F91206007012F9EC
:104D900090039EC9F0A3F0A3E9F07B007A007900AC
:104DA000229001D2E0F9A3E0FAA3E09001D8C9F083
:104DB000A3EAF0A3E9F09001CFE0FBA3E0FAA3E0BF
:104DC000F91261BF90039EEBF0A3EAF0A3E9F04A69
:104DD0004B601890039EE0FBA3E0FAA3E0F9E41215
:104DE000066890039F75F0011207179001CFE0FB52
:104DF000A3E0FAA3E0F9229001C9EBF0A3EAF0A343
:104E0000E9F09001C9E0FBA3E0FAA3E0F912060083
:104E1000FF12709A500C9001CAE475F00112071746
:104E200080E0D2009001C9E0FBA3E0FAA3E0F91210
:104E30000600FF642B6004EFB42D1D9001C9E0FB58
:104E4000A3E475F001120E3AA9F0FA120600642DDF
:104E50006003D38001C39200E49001CCF0A3F090F2
:104E600001C9E0FBA3E0FAA3E0F9120600FF12710A
:104E7000F550429001C9E0FBA3E0FAA3E0F9120665
:104E800000FF3395E0FEEF24D0FBEE34FFFA9001F3
:104E9000CCE0FEA3E0FF7C007D0A12067AEF2BFF38
:104EA000EE3A9001CCF0A3EFF09001CAE475F00166
:104EB00012071780AA30000A9001CCE0FEA3E0FFA1
:104EC000800F9001CCE0FEA3E0FFC3E49FFFE49ECF
:104ED000FE229001871209EF7E017F127D00900172
:104EE000871209CF120AE47E007F087D00900187B7
:104EF0001209CFE924EAF9EA3400FA120AE490012F
:104F0000871209CFE92412F9EA3400FA126C2390CF
:104F100001871209CFE92432F9EA3400FA7D02123E
:104F20003F3E9001871209CFE9248EF9EA3400FA56
:104F30007D01123F3E9001871209CFE92402F9EA70
:104F40003401FA12665D9001871209CFE4120668F7
:104F50009001871209CFE9240EF9EA3400FAE475CA
:104F6000F0641207589001871209CFE92410F9EA7A
:104F70003400FAE475F0191207589001871209CF2E
:104F8000E92401F9EA3400FA74011206687F007E10
:104F9000007D007C009001871209CFE92402F9EA24
:104FA0003400FA1209452290019AEEF0A3EFF0A323
:104FB0007403F0A3747DF090019CE0FEA3E0F58201
:104FC0008E83E0FEA3E0FF4E7003FEFF228F828EF1
:104FD00083A3A3E0FCA3E0FD90019AE0FAA3E0FB29
:104FE000C3ED9BEC9A500A90019CEEF0A3EFF08089
:104FF000C68F828E83A3A3E0FCA3E0C39BFDEC9A43
:10500000FC90019EF0A3EDF0C39410EC94005017B7
:105010008F828E83E0FCA3E0FD90019CE0FAA3E088
:10502000F5828A83EC804590019FE024FCF090019A
:105030009EE034FFF0E0FDA3E08F828E83A3A3CD3A
:10504000F0A3EDF0EF2404FFE43EFE90019FE02F7B
:10505000FF90019EE03EFE90019CF0A3EFF09001D6
:105060009AE0FDA3E08F828E83A3A3CDF0A3EDF0A1
:10507000EF2404FFE43EFE229001811209EF7B0140
:105080007A007921124ED27B017A0079777FB87E3F
:105090000B7D007C00C004C005C006C0077F037EF6
:1050A000007D007C009001D01209B77F587E1B7DE7
:1050B000007C009001D41209B7D007D006D005D0EB
:1050C000041265FA7B017A0079777D0A126D5A7BAA
:1050D000017A0079D37FE87E037D007C00C004C0A4
:1050E00005C006C0077F037E007D007C009001D0D4
:1050F0001209B77F887E137D007C009001D41209CD
:10510000B7D007D006D005D0041265FA7B017A002B
:1051100079D37D0A126D5A7BFF7A43790CC003C0A4
:1051200002C0019001811209CFE9244BF9EA340051
:10513000FA1209F889828A83D001D002D003120AB8
:1051400091227F007E007D007C0090039A1209B7B7
:105150009076007410F09070107401F0907019E463
:10516000F09078027401F090780374A3F07B027AD7
:105170007879007D587C021271AC7B027A787904D0
:10518000C003C002C0017BFF7A7279EBAC02AD01B3
:10519000D001D002D0031271AC7B027A7879067DFF
:1051A000087C781271AC7B027A7679047D107C00E1
:1051B0001271AC7B027A7679067D007C001271ACAC
:1051C0009070297409F0907039740BF090706974C4
:1051D00012F09070797418F09070147401F090705F
:1051E00018E0FFEF20E0F7907028E0FFEF20E0F7F5
:1051F000907038E0FFEF20E0F7907068E0FFEF205C
:10520000E0F7907078E0FFEF20E0F7229001811244
:1052100009EF9001841209CF12685F7B147A4C79F0
:10522000B978401201129001B91209B790018112A8
:1052300009CF125D8B12685F7B147A4C79B9784084
:105240001201129001BD1209B77B017A007921C0C9
:1052500003C002C0017B017A0179B99001C412092F
:10526000EF9001C7E4F0D001D002D00312158D7B7E
:10527000017A017987C003C002C0017BFF7A4379BC
:10528000849001EE1209EF9001B912095F9001F1CB
:105290001209B79001BD12095F9001F51209B7D04C
:1052A00001D002D003121BA67B017A017987C003CB
:1052B000C002C0019001811209CFE92448F9EA3403
:1052C00000FA1209F889828A83D001D002D0031231
:1052D0000A91229001C41209EF9001C41209CFE98A
:1052E0002404F9EA3400FA120925EC1203427B285F
:1052F0007A2579D9784412021B1235E4C004C0051E
:10530000C006C0079001C41209CF120925EC120390
:1053100042A804A905AA06AB07D007D006D005D03D
:10532000041201129001C71209CF1209459001C45D
:105330001209CFE92404F9EA3400FA120925EC1223
:1053400003427B287A2579D9784412021B1235FA58
:10535000C004C005C006C0079001C41209CF1209DD
:1053600025EC120342A804A905AA06AB07D007D072
:1053700006D005D0041201129001C71209CFE9240A
:1053800004F9EA3400FA12094522C0E0C083C08261
:10539000C085C084C086758600C093759300C0D058
:1053A00075D000C006C007906465E0FF90021BEF57
:1053B000F090021BE0FFEF30E56E900352E0FFEF4C
:1053C000C394324019900352E4F090031FE0FF9021
:1053D0000352E0FEEEB507069003547401F09064AA
:1053E00044E0FF900352E0FE74202EF582E4340383
:1053F000F583EFF090031EE0FFEF60069003547416
:1054000001F0900352E004F090031FE0FF9003527C
:10541000E0FEEEB5070690031E7401F0906465E0AF
:10542000FF90021BEFF08089D007D006D0D0D09338
:10543000D086D084D085D082D083D0E032C0E0C086
:10544000F0C083C082C085C084C086758600C093CA
:10545000759300C0D075D000C000C004C005C00660
:10546000C00790646BE0FF90038FEFF090038FE034
:10547000FFEF30E01E90038B12095FEF24FFFFEE79
:10548000347FFEED3400FDEC3400FC90038B1209F8
:10549000B7802690038FE0FFEF30E11D90038B1261
:1054A000095FC3EF9400FFEE9480FEED9400FDECE5
:1054B0009400FC90038B1209B790038FE0FFEF304C
:1054C000E20E7F007E007D007C0090038B1209B706
:1054D000D007D006D005D004D000D0D0D093D0864D
:1054E000D084D085D082D083D0F0D0E032C0E0C06C
:1054F000F0C083C082C085C084C086758600C0931A
:10550000759300C0D075D000C000C004C005C006AF
:10551000C007906467E0FF900394EFF0900394E07D
:10552000FFEF30E01E90039012095FEF24FFFFEEC3
:10553000347FFEED3400FDEC3400FC900390120942
:10554000B78026900394E0FFEF30E11D90039012A6
:10555000095FC3EF9400FFEE9480FEED9400FDEC34
:105560009400FC9003901209B7900394E0FFEF3091
:10557000E20E7F007E007D007C009003901209B750
:10558000D007D006D005D004D000D0D0D093D0869C
:10559000D084D085D082D083D0F0D0E0320203EC2A
:1055A00022EDA2E7D2E7F9EC3340F260F3B4FF0852
:1055B000ED547F70E80203F6F82481C2E0C0E0F405
:1055C0000428FAC313FCED92E7FD9001EF1209B72E
:1055D000EEA2E7E9BA7F02C31334009400FA75F033
:1055E00091A4E5F013F494FE8AF0A433E5F033249B
:1055F0008CD313FDE492E7FE7F007C3F758302ECC1
:10560000C0E0F8EDC0E0F9EEC0E0FAEFC0E0FB85E5
:1056100083F09001EF12095F85F08312021BD0E046
:10562000FBD0E0FAD0E0F9D0E0F8120021ED648080
:10563000FD30E7011CD583C7ED33CC33F8D0E0A2B1
:10564000E71328C313CC13FD2290FFFF120A93EF38
:10565000F090FFFE120A93850D83850E82A3A3E0CE
:10566000FFEFD3941F5003D38001C34025850D83E2
:10567000850E82A3A3E0FFEFD3941F500A7F017E23
:10568000007D007C0080087F007E007D007C001291
:105690006CED850D83850E82A3A3E0FFEF541FFF01
:1056A0007E00EF7803CEC313CE13D8F9FFEF24C0EA
:1056B000FFEE3444FE850D83850E82EEF0A3EFF0FD
:1056C000850D83850E82A3A3E0FFEF5407FF7401CD
:1056D000A807088002C333D8FCFF850D83850E829E
:1056E000E0FCA3E0FD8D828C83EFF0900003120AB2
:1056F000932290FFFF120A93EFF090FFFE120A939D
:10570000850D83850E82A3A3E0FFEFD3941F500382
:10571000D38001C34025850D83850E82A3A3E0FFBE
:10572000EFD3941F500A7F017E007D007C0080082B
:105730007F007E007D007C00126CED850D83850E60
:1057400082A3A3E0FFEF541FFF7E00EF7803CEC3D8
:1057500013CE13D8F9FFEF24C8FFEE3444FE850DB5
:1057600083850E82EEF0A3EFF0850D83850E82A374
:10577000A3E0FFEF5407FF7401A807088002C333BA
:10578000D8FCFF850D83850E82E0FCA3E0FD8D82B1
:105790008C83EFF0900003120A932290018112098A
:1057A000EF9001841209CF124DF79001B9EEF0A3EA
:1057B000EFF09001B9E0FEA3E0FFC3EE94004023B8
:1057C0007B027A4F791012719D9001B9E0FCA3E041
:1057D000FDD3ED9FEC9E500B9001B9E0FEA3E0FFDE
:1057E000126E647B017A017987C003C002C0017B1D
:1057F000FF7A4379599001EE1209EF9001B9E0FE6A
:10580000A3E0FF9001F1EEF0A3EFF0D001D002D0C1
:1058100003121BA67B017A017987C003C002C00175
:105820009001811209CFE92448F9EA3400FA1209FB
:10583000F889828A83D001D002D003120A91229083
:1058400001811209EF9001841209CF124DF79001E6
:10585000B9EEF0A3EFF09001B9E0FEA3E0FFC3EED4
:10586000940040237B027A4F790412719D9001B914
:10587000E0FCA3E0FDD3ED9FEC9E500B9001B9E05E
:10588000FEA3E0FF126EB27B017A017987C003C0EC
:1058900002C0017BFF7A4379599001EE1209EF9023
:1058A00001B9E0FEA3E0FF9001F1EEF0A3EFF0D02C
:1058B00001D002D003121BA67B017A017987C003B5
:1058C000C002C0019001811209CFE92448F9EA34ED
:1058D00000FA1209F889828A83D001D002D003121B
:1058E0000A9122900190EFF0900191ECF0A3EDF07D
:1058F000900190E0FFEFD3941F5003D38001C34089
:1059000020900190E0FFEFD3941F500A7F017E00AA
:105910007D007C0080087F007E007D007C00126C92
:10592000ED900190E0FFEF541FFF7E00EF25E0FFB8
:10593000EE33FEEF2400FFEE3444FEAA06A9077BF7
:105940000112719D900193EEF0A3EFF0900190E0B1
:10595000FF7E02EF8EF0A4FFAEF0EF2400FFEE34E6
:1059600044FEAA06A9077B01900191E0FEA3E0FF97
:10597000AD07AC061271AC900193E0FEA3E0FF22EC
:105980009001BD1209EF9001C01209B79001BD123C
:1059900009CFE924F6F9EA3400FA1209259001BD8D
:1059A0001209CFE9240AF9EA3400FA1209459001F4
:1059B000BD1209CFE92412F9EA3400FA1209259040
:1059C00001C012097B1207779001BD1209CFE924AB
:1059D00006F9EA3400FA1209459001BD1209CFE92F
:1059E0002406F9EA3400FAC003C002C0019001BDE8
:1059F0001209CFE924EEF9EA3400FA9001C712093E
:105A0000EFD001D002D0031252D39001BD1209CFC2
:105A1000740412066822900181E4F01272AE9003C1
:105A200052E0FF90031FE0FEEEB5070B90031EE06F
:105A3000FFEFD39400403E90031EE0FFEFD39400AD
:105A4000400590031EE4F090031FE0FFEFC3943283
:105A5000400590031FE4F090031FE0FF74202FF532
:105A600082E43403F583E0FF900181EFF090031F9F
:105A7000E004F0802E906465E0FF900182EFF090EA
:105A80000182E0FFEF30E51B906444E0FF9001816C
:105A9000EFF0900182E0FFEF541EFFEF60059001F0
:105AA00081E4F01272A8900181E0FF22900181123E
:105AB00009EF9001841209CF12685F7B9F7A8B797E
:105AC000AA78451201127B007A00793478431202D9
:105AD0001B1203809001B91209B77B017A0079216A
